:020000040800F2
:1000000000280020CD1500088D110008931100086C
:10001000991100089F110008A511000800000000B8
:10002000000000000000000000000000AB1100080C
:10003000B711000800000000C3110008CF1100082C
:1000400015160008151600081516000815160008E4
:1000500015160008151600081516000815160008D4
:1000600015160008151600081516000815160008C4
:1000700015160008151600081516000815160008B4
:1000800015160008151600081516000815160008A4
:100090001516000815160008151600081516000894
:1000A0001516000815160008151600081516000884
:1000B000DD110008151600080000000015160008E4
:1000C00015160008000000000000000015160008CA
:1000D00000000000151600081516000800000000BA
:1000E0001516000815160008151600080000000077
:1000F0000000000000000000000000000000000000
:0C01000000000000000000005FF808F1A3
:10010C0010B5054C237833B9044B13B10448AFF345
:10011C0000800123237010BD30000020000000007F
:10012C00442C000808B5034B1BB103490348AFF33B
:10013C00008008BD0000000034000020442C0008A2
:10014C0080B500AF924B1B68013B0D2B00F27981FF
:10015C0001A252F823F000BF9D0100084F040008D3
:10016C004F0400084F0400084F0400084F04000817
:10017C004F0400084F0400084F0400084F04000807
:10018C00EB0100087902000811030008B90300080C
:10019C007F4B0B221A607F4B1B68013B7E4A13601E
:1001AC007E4B1B68013B7E4A13607B4B1B681846D9
:1001BC0000F0E2FE7A4B1B68184600F00DFF754B01
:1001CC001B684FF47A7202FB03F31946002000F00F
:1001DC0033FF4FF47A71012000F02EFF3AE101F069
:1001EC0007F8704B1B68012B11D1694B0C221A605C
:1001FC006D4B1B684FF47A7202FB03F31946002017
:10020C0000F01AFF684B1B68013B634A1360654B97
:10021C005B68012B18D1604B1B68184600F0ACFED4
:10022C005F4B1B68184600F0D7FE5B4B1B68013B0D
:10023C00594A13605A4B1B68013B594A13604FF4DF
:10024C007A71012000F0F8FE002000F05DF9034601
:10025C00002B00F0F8804E4B02221A6042F2107113
:10026C00022000F0E9FE01F0E5F8ECE000F0EAFF16
:10027C004C4B1B68012B16D1454B0D221A60454B7C
:10028C001B684FF47A7202FB03F31946002000F04E
:10029C00D3FE424B1B68013B3F4A13603D4B1B682E
:1002AC00013B3F4A13603F4B5B68012B18D13A4B23
:1002BC001B68184600F060FE394B1B68184600F0AE
:1002CC008BFE354B1B68013B334A1360344B1B6868
:1002DC00013B334A13604FF47A71012000F0ACFEFD
:1002EC00002000F011F90346002B00F0AE80284BE3
:1002FC0002221A6042F21071022000F09DFE01F001
:10030C0099F8A2E000F0C8FF264B1B68012B11D115
:10031C001F4B0E221A60244B1B684FF47A7202FB9F
:10032C0003F31946002000F087FE1F4B1B68013BAE
:10033C001B4A13601B4B5B68012B18D1164B1B68B7
:10034C00184600F019FE164B1B68184600F044FEC8
:10035C00114B1B68013B104A1360114B1B68013B8E
:10036C000F4A13604FF47A71012000F065FE0020F3
:10037C0000F0CAF80346002B69D0054B02221A6024
:10038C0042F21071022000F057FE01F053F85EE0CB
:10039C0054000020240000204C0000201C000020F1
:1003AC00500000201C0200202000002000F09EFFC6
:1003BC00294B1B68012B16D1284B0B221A60284B9A
:1003CC001B684FF47A7202FB03F31946002000F00D
:1003DC0033FE234B1B68013B224A1360224B1B68E4
:1003EC00013B224A13601C4B5B68012B18D11D4B3F
:1003FC001B68184600F0C0FD1C4B1B68184600F02B
:10040C00EBFD184B1B68013B164A1360174B1B681E
:10041C00013B164A13604FF47A71012000F00CFE78
:10042C00002000F071F80346002B12D00B4B022277
:10043C001A6042F21071022000F0FEFD00F0FAFF8B
:10044C0007E000BF06E000BF04E000BF02E000BF11
:10045C0000E000BF00BF80BD1C0200205400002043
:10046C00240000204C0000201C0000205000002024
:10047C0080B483B000AF00237B602BE01A4A7B680A
:10048C00012142F82310194A7B68012142F82310FC
:10049C00174A7B68012142F82310164A7B68012118
:1004AC0042F82310144A7B684FF4FA7142F8231077
:1004BC00124A7B68002142F82310114A7B68002104
:1004CC0042F823100F4A7B68002142F823107B6806
:1004DC0001337B607B68092BD0DD00BF00BF0C377C
:1004EC00BD4680BC704700BF94000020BC000020BB
:1004FC005C0100206C000020E4000020340100208E
:10050C00840100200C01002080B483B000AF78601F
:10051C00094A7B6852F82330012B06D1064A7B68C6
:10052C00002142F82310012300E0002318460C3769
:10053C00BD4680BC704700BF0C01002080B582B066
:10054C0000AF00237B6012E0494A7B6852F82320FD
:10055C0048497B6841F82320474A7B6852F823209E
:10056C0043497B6841F823207B6801337B607B68BF
:10057C00092BE9DD0421414801F032FB03461A4600
:10058C003D4B1A6008213D4801F02AFB03461A46F0
:10059C00394B5A601021394801F022FB03461A46A8
:1005AC00354B9A6000233B605AE0314A3B6852F865
:1005BC00232031493B6851F823309A424DD12C4AC3
:1005CC003B6852F823202B493B6851F823309A4260
:1005DC0043D1284A3B6852F8232029493B6851F8FB
:1005EC0023309A4219D0234A3B6852F823202449DD
:1005FC003B6841F82320224A3B6852F82330002BF9
:10060C002BD1204A3B684FF4FA7142F823101E4A52
:10061C003B68012142F823101FE01A4A3B6852F84C
:10062C0023305A1E17493B6841F82320154A3B6872
:10063C0052F82330002B10D1124A3B684FF4FA7158
:10064C0042F823100E4A3B6852F82330002B04D199
:10065C000D4A3B68012142F823103B6801333B6093
:10066C003B68092BA1DD00BF00BF0837BD4680BD2C
:10067C00BC0000205C010020940000200008014018
:10068C006C000020E40000200C01002080B500AFBD
:10069C001E4B1B68022B20D0022B30DC002B02D00F
:1006AC00012B04D02BE0194B01221A602CE0002006
:1006BC00FFF72AFF0346002B23D0144B02221A60AB
:1006CC0042F21071022000F0B7FC4FF4FA710320D3
:1006DC0000F0B2FC00F0AEFE13E00220FFF714FFB6
:1006EC000346002B03D0094B01221A600CE0084B87
:1006FC009B68012B07D1054B01221A6004E000BF57
:10070C0002E000BF00E000BF00BF80BD540000202D
:10071C001C02002080B500AF00F078FF00F028F834
:10072C0000F062F800F0ACF80E4801F0CDFEFFF7D7
:10073C009FFE4FF47A71042000F07EFCFFF700FD61
:10074C0000F034F9FFF7A2FF074B1B69012BF5D121
:10075C004FF47A71042000F06FFC2021034801F063
:10076C006EFAEBE7AC0100201C02002000080140EF
:10077C0080B590B000AF07F118032822002118466D
:10078C0002F052FA3B1D00221A605A609A60DA603D
:10079C001A610223BB610123BB621023FB6200239D
:1007AC007B6307F11803184601F062FA0346002B2D
:1007BC0001D000F0F5F80F237B600023BB60002311
:1007CC00FB6000233B6100237B613B1D002118462D
:1007DC0001F0CEFC0346002B01D000F0E1F800BF85
:1007EC004037BD4680BD000080B586B000AF07F134
:1007FC00080300221A605A609A60DA603B460022B5
:10080C001A605A601D4B4FF080421A601B4B41F628
:10081C003F725A60194B00229A60184B0922DA6019
:10082C00164B00221A61154B00229A61134801F0F5
:10083C00FBFD0346002B01D000F0B2F84FF48053BF
:10084C00BB6007F1080319460C4801F079FF034619
:10085C00002B01D000F0A4F800233B6000237B6048
:10086C003B461946054802F051F90346002B01D0CE
:10087C0000F096F800BF1837BD4680BDAC010020D3
:10088C0080B586B000AF07F1080300221A605A60E9
:10089C009A60DA60284B9B69274A43F00403936102
:1008AC00254B9B6903F004037B607B68224B9B699F
:1008BC00214A43F0080393611F4B9B6903F0080323
:1008CC003B603B6800224FF478711C4801F09FF9A3
:1008DC00002241F6FF711A4801F099F91C23BB6004
:1008EC000023FB6000233B6107F108031946134802
:1008FC0000F0FCFF4FF47873BB600123FB60002316
:10090C003B6102237B6107F1080319460B4800F099
:10091C00EDFF41F6FF73BB600123FB6000233B61DD
:10092C0002237B6107F108031946054800F0DEFF3E
:10093C0000BF1837BD4680BD0010024000080140C2
:10094C00000C014080B582B000AF7860124B1B6880
:10095C00013B114A136000F08DFBFFF7EFFD0F4BCD
:10096C001B68184600F0B6FA0B4B1B68002B07D11E
:10097C000A4B1B680133094A1360074B14221A6097
:10098C00064B1B68032B02DD044B00221A6000BFD0
:10099C000837BD4680BD00BF000000205800002075
:1009AC0080B400AF72B600BFFEE7000080B500AFA8
:1009BC00BE4B1B68023B152B00F26C8101A252F856
:1009CC0023F000BF290A0008A10C0008A10C0008A4
:1009DC00A10C0008A10C0008A10C0008A10C000837
:1009EC00A10C0008A10C0008A10C0008A10C000827
:1009FC00A10C0008A10C0008A10C0008A10C000817
:100A0C00A10C0008A10C0008A10C0008A10C000806
:100A1C009B0A0008470B0008F10B0008A44B1B684D
:100A2C00184600F0A9FA002000F0D6FAA14BDB68BA
:100A3C00012B06D14FF4FA71032000F0FDFA00F0FF
:100A4C009BFD0020FFF760FD0346002B00F0248186
:100A5C00964B15221A60964B02221A60964B1B6815
:100A6C00964A1360964B1B68964A1360964B1B680C
:100A7C00964A13608E4B1B68184600F07DFA8E4B1D
:100A8C001B68184600F0A8FA00F0D4FC04E1894B6E
:100A9C00DB68012B06D14FF4FA71032000F0CCFA7D
:100AAC0000F0F2FC0020FFF72FFD0346002B21D0B5
:100ABC007E4B16221A607E4B03221A607F4B1B68FA
:100ACC00184600F08DFC7F4B1B68184600F096FC16
:100ADC007E4B1B68184600F09FFC754B1B68184634
:100AEC0000F04AFA764B1B68184600F075FA00F0D5
:100AFC00A1FCD8E00120FFF707FD0346002B07D02F
:100B0C0000F01EFC6C4B1B68184600F065FACAE03E
:100B1C000220FFF7F9FC0346002B00F0BF80634B6B
:100B2C0002221A6042F21071022000F085FA00F0E5
:100B3C0081FC5F4B00221A60B5E05E4BDB68012B39
:100B4C0006D14FF4FA71032000F076FA00F0C4FCE1
:100B5C000020FFF7D9FC0346002B21D0534B172262
:100B6C001A60534B04221A60544B1B68184600F051
:100B7C0037FC544B1B68184600F040FC534B1B6869
:100B8C00184600F049FC4A4B1B68184600F0F4F973
:100B9C004D4B1B68184600F01FFA00F04BFC82E02E
:100BAC000120FFF7B1FC0346002B07D000F0F8FB47
:100BBC00434B1B68184600F00FFA74E00220FFF755
:100BCC00A3FC0346002B6BD0384B02221A6042F276
:100BDC001071022000F030FA00F02CFC344B002293
:100BEC001A6060E0334BDB68012B06D14FF4FA71CD
:100BFC00032000F021FA00F097FC0020FFF784FCA2
:100C0C000346002B24D0294B02221A6042F21071A9
:100C1C00022000F011FA00F00DFC254B00221A60A6
:100C2C00264B1B68184600F0DBFB264B1B6818464E
:100C3C0000F0E4FB254B1B68184600F0EDFB1C4B49
:100C4C001B68184600F098F9002000F0C5F92AE05E
:100C5C000120FFF759FC0346002B07D000F088FB5E
:100C6C00194B1B68184600F0B7F91CE00220FFF77F
:100C7C004BFC0346002B15D00C4B02221A6042F29F
:100C8C001071022000F0D8F900F0D4FB084B0022C0
:100C9C001A6008E000BF06E000BF04E000BF02E0FD
:100CAC0000BF00E000BF00BF80BD00BF54000020AB
:100CBC005C0000201C0200201C00002060000020B2
:100CCC002000002064000020240000206800002088
:100CDC0080B500AF012240210A4800F098FF0122A4
:100CEC008021084800F093FF01224FF480710548E1
:100CFC0000F08DFF01224FF40071024800F087FFD5
:100D0C0000BF80BD0008014080B584B000AFF86022
:100D1C00B9607A603B60FB68DBB21A460121184867
:100D2C0000F075FFBB68DBB21A460221144800F0D4
:100D3C006EFF7B68DBB21A460421114800F067FF96
:100D4C003B68DBB21A4608210D4800F060FFBB6916
:100D5C00DBB21A4610210A4800F059FFFB69DBB2DE
:100D6C001A462021064800F052FF3B6ADBB21A46B5
:100D7C004021034800F04BFF00BF1037BD4680BD3B
:100D8C00000C014080B586B004AF78607B68092BFD
:100D9C0000F29A8001A252F823F000BFD10D000896
:100DAC00EB0D0008050E00081F0E0008390E000898
:100DBC00530E00086D0E0008870E0008A10E0008E7
:100DCC00BB0E000801230293002301930023009320
:100DDC000023002200210020FFF796FF75E001237D
:100DEC00029301230193012300930123002200218C
:100DFC000120FFF789FF68E0002302930123019390
:100E0C00002300930023012200210020FFF77CFF28
:100E1C005BE0002302930123019301230093002341
:100E2C00002200210020FFF76FFF4EE00023029309
:100E3C0000230193012300930123002200210120B0
:100E4C00FFF762FF41E0002302930023019301238B
:100E5C0000930023002201210020FFF755FF34E00E
:100E6C00002302930023019300230093002300220C
:100E7C0001210020FFF748FF27E001230293012303
:100E8C000193012300930123002200210020FFF78E
:100E9C003BFF1AE0002302930023019300230093ED
:100EAC000023002200210020FFF72EFF0DE000237D
:100EBC0002930023019301230093002300220021BD
:100ECC000020FFF721FF00E000BF00BF0837BD4640
:100EDC0080BD00BF80B582B000AF78607B68032B0B
:100EEC0040D801A252F823F0050F00081F0F00088C
:100EFC00390F0008550F0008FFF7EAFE00224021C9
:100F0C001B4800F084FE1B4B1B681846FFF73AFF8A
:100F1C0029E0FFF7DDFE00228021154800F077FE66
:100F2C00144B5B681846FFF72DFF1CE0FFF7D0FE53
:100F3C0000224FF480710E4800F069FE0D4B9B6847
:100F4C001846FFF71FFF0EE0FFF7C2FE00224FF41A
:100F5C000071074800F05BFE064BDB681846FFF794
:100F6C0011FF00E000BF00BF0837BD4680BD00BFC9
:100F7C00000801400400002080B483B000AF78600A
:100F8C007B68134A82FB03129210DB17D11A104BA9
:100F9C0083FB01239A10CB17D21A13469B001344E0
:100FAC005B00CA1A0B4B1A607968094B83FB01234F
:100FBC009A10CB17D21A13469B0013445B00CA1A23
:100FCC00044B5A6000BF0C37BD4680BC704700BF55
:100FDC00676666660400002080B483B000AF78605A
:100FEC007B68134A82FB03129210DB17D11A104B49
:100FFC0083FB01239A10CB17D21A13469B00134480
:10100C005B00CA1A0B4B9A607968094B83FB01236E
:10101C009A10CB17D21A13469B0013445B00CA1AC2
:10102C00044BDA6000BF0C37BD4680BC704700BF74
:10103C00676666660400002080B483B000AF7860F9
:10104C003960094A7B68002142F82310074B1B6862
:10105C003A6892FBF3F206497B6841F8232000BF03
:10106C000C37BD4680BC70471C02002014000020C9
:10107C00F401002080B483B000AF00237B601CE03F
:10108C00124A7B6852F82330002B13DB0F4A7B6823
:10109C0052F823305A1E0D497B6841F823200B4A25
:1010AC007B6852F82330002B04DC094A7B68012151
:1010BC0042F823107B6801337B607B68092BDFDDF2
:1010CC0000BF00BF0C37BD4680BC7047F401002048
:1010DC001C02002080B485B000AF154B9B69144AEC
:1010EC0043F001039361124B9B6903F00103BB6056
:1010FC00BB680F4BDB690E4A43F08053D3610C4B3A
:10110C00DB6903F080537B607B680A4B5B68FB6098
:10111C00FB6823F0E063FB60FB6843F08063FB60DB
:10112C00044AFB68536000BF1437BD4680BC70474F
:10113C00001002400000014080B584B000AF786020
:10114C007B681B68B3F1804F13D10C4BDB690B4AE6
:10115C0043F00103D361094BDB6903F00103FB602E
:10116C00FB68002200211C2000F089FB1C2000F0F1
:10117C00A2FB00BF1037BD4680BD00BF001002406F
:10118C0080B400AFFEE780B400AFFEE780B400AFE0
:10119C00FEE780B400AFFEE780B400AFFEE780B49A
:1011AC0000AF00BFBD4680BC704780B400AF00BF2D
:1011BC00BD4680BC704780B400AF00BFBD4680BC4C
:1011CC00704780B500AF00F067FA00BF80BD00002B
:1011DC0080B500AF024801F0C3F900BF80BD00BF6D
:1011EC00AC01002080B400AF00BFBD4680BC70478E
:1011FC0080B500AF00228021114800F008FD0022CC
:10120C004FF480710E4800F002FD01224FF4007182
:10121C000B4800F0FCFC01224FF48061084800F000
:10122C00F6FC00224FF40061054800F0F0FC0022AF
:10123C004FF48051024800F0EAFC00BF80BD00BFB3
:10124C00000C014080B500AF00228021114800F055
:10125C00DEFC01224FF480710E4800F0D8FC002215
:10126C004FF400710B4800F0D2FC01224FF4806166
:10127C00084800F0CCFC00224FF40061054800F057
:10128C00C6FC00224FF48051024800F0C0FC00BFA5
:10129C0080BD00BF000C014080B500AF0122802151
:1012AC00114800F0B4FC00224FF480710E4800F09D
:1012BC00AEFC00224FF400710B4800F0A8FC002299
:1012CC004FF48061084800F0A2FC00224FF400614A
:1012DC00054800F09CFC01224FF48051024800F0BC
:1012EC0096FC00BF80BD00BF000C014080B500AF74
:1012FC0001228021114800F08AFC00224FF48071F9
:10130C000E4800F084FC00224FF400710B4800F0F2
:10131C007EFC00224FF48061084800F078FC01222A
:10132C004FF40061054800F072FC00224FF480512C
:10133C00024800F06CFC00BF80BD00BF000C0140F7
:10134C0080B400AF084B1B68622B09DC064B1B6892
:10135C000133054A1360054B1B680133034A1360C4
:10136C0000BFBD4680BC70471C000020240000203C
:10137C0080B400AF084B1B68622B09DC074B1B6861
:10138C000133064A1360044B1B680133024A136095
:10139C0000BFBD4680BC70471C000020240000200C
:1013AC0080B400AF0B4B1B68622B0FDC0A4B1A6826
:1013BC000A4B1B689A4209DA074B1B680133064A31
:1013CC001360044B1B680133024A136000BFBD4617
:1013DC0080BC70471C00002020000020240000204E
:1013EC0080B483B000AF7860034A7B68136000BFA1
:1013FC000C37BD4680BC70471C00002080B483B005
:10140C0000AF7860034A7B68136000BF0C37BD46A1
:10141C0080BC70472000002080B483B000AF78609F
:10142C00034A7B68136000BF0C37BD4680BC704715
:10143C002400002080B500AF00228021114800F06C
:10144C00E6FB00224FF480710E4800F0E0FB002216
:10145C004FF400710B4800F0DAFB00224FF480616E
:10146C00084800F0D4FB00224FF40061054800F05E
:10147C00CEFB00224FF48051024800F0C8FB00BFA5
:10148C0080BD00BF000C014080B500AF8021114829
:10149C0000F0D5FB4FF480610E4800F0D0FB002229
:1014AC004FF480710B4800F0B2FB00224FF4007136
:1014BC00084800F0ACFB00224FF40061054800F036
:1014CC00A6FB00224FF48051024800F0A0FB00BFA5
:1014DC0080BD00BF000C014080B500AF4FF480719F
:1014EC00104800F0ACFB4FF400610E4800F0A7FB75
:1014FC00002280210B4800F08AFB00224FF400717F
:10150C00084800F084FB00224FF48061054800F08D
:10151C007EFB00224FF48051024800F078FB00BFA4
:10152C0080BD00BF000C014080B500AF4FF40071CE
:10153C00104800F084FB4FF480510E4800F07FFB04
:10154C00002280210B4800F062FB00224FF48071D6
:10155C00084800F05CFB00224FF48061054800F065
:10156C0056FB00224FF40061024800F050FB00BF14
:10157C0080BD00BF000C014080B500AF80210F483A
:10158C0000F05DFB4FF480610C4800F058FB4FF409
:10159C0080710A4800F053FB4FF40061074800F0DB
:1015AC004EFB4FF40071054800F049FB4FF480519D
:1015BC00024800F044FB00BF80BD00BF000C01409E
:1015CC00FFF710FE0B480C490C4A002302E0D458DC
:1015DC00C4500433C4188C42F9D3094A094C002373
:1015EC0001E013600432A242FBD301F0F9FAFFF7D9
:1015FC0091F870470000002030000020882C000873
:10160C003000002048020020FEE7000080B500AF4B
:10161C00084B1B68074A43F010031360032000F0CB
:10162C0023F90F2000F008F8FFF754FD00231846AB
:10163C0080BD00BF0020024080B582B000AF786052
:10164C00124B1A68124B1B7819464FF47A73B3FB82
:10165C00F1F3B2FBF3F3184600F03BF90346002B11
:10166C0001D001230EE07B680F2B0AD80022796889
:10167C004FF0FF3000F003F9064A7B68136000233B
:10168C0000E0012318460837BD4680BD1800002035
:10169C002C0000202800002080B400AF054B1B78E4
:1016AC001A46054B1B681344034A136000BFBD4622
:1016BC0080BC70472C0000204402002080B400AF96
:1016CC00024B1B681846BD4680BC70474402002084
:1016DC0080B485B000AF78607B6803F00703FB60D3
:1016EC000C4BDB68BB60BA684FF6FF031340BB6062
:1016FC00FB681A02BB68134343F0BF6343F4003327
:10170C00BB60044ABB68D36000BF1437BD4680BCC5
:10171C00704700BF00ED00E080B400AF044BDB6805
:10172C001B0A03F007031846BD4680BC704700BF78
:10173C0000ED00E080B483B000AF0346FB7197F975
:10174C000730002B0BDBFB7903F01F02064997F9DE
:10175C0007305B09012000FA02F241F8232000BF98
:10176C000C37BD4680BC704700E100E080B483B00C
:10177C0000AF03463960FB7197F90730002B0ADB89
:10178C003B68DAB20C4997F907301201D2B20B441C
:10179C0083F800230AE03B68DAB20849FB7903F0CE
:1017AC000F03043B1201D2B20B441A7600BF0C3764
:1017BC00BD4680BC704700BF00E100E000ED00E0DA
:1017CC0080B489B000AFF860B9607A60FB6803F050
:1017DC000703FB61FB69C3F10703042B28BF042338
:1017EC00BB61FB690433062B02D9FB69033B00E0A8
:1017FC0000237B614FF0FF32BB6902FA03F3DA433B
:10180C00BB681A407B699A404FF0FF317B6901FA43
:10181C0003F3D9437B680B40134318462437BD466A
:10182C0080BC704780B582B000AF78607B68013BAC
:10183C00B3F1807F01D301230FE00A4A7B68013B9F
:10184C0053600F214FF0FF30FFF790FF054B002244
:10185C009A60044B07221A60002318460837BD46CD
:10186C0080BD00BF10E000E080B582B000AF7860B2
:10187C007868FFF72DFF00BF0837BD4680BD80B5E7
:10188C0086B000AF0346B9607A60FB7300237B61BE
:10189C00FFF742FF78617A68B9687869FFF790FFC3
:1018AC00024697F90F3011461846FFF75FFF00BF4D
:1018BC001837BD4680BD80B582B000AF0346FB71C2
:1018CC0097F907301846FFF735FF00BF0837BD46BC
:1018DC0080BD80B582B000AF78607868FFF7A2FF5A
:1018EC00034618460837BD4680BD000080B48BB057
:1018FC0000AF7860396000237B6200233B6248E1D3
:10190C0001227B6A02FA03F3FB613B681B68FA69EC
:10191C001340BB61BA69FB699A4240F037813B685E
:10192C005B68A34A93425ED0A14A934275D8A14A00
:10193C00934258D09F4A93426FD89F4A934252D0B9
:10194C009D4A934269D89D4A93424CD09B4A9342FC
:10195C0063D89B4A934246D0994A93425DD8122B46
:10196C002AD8122B59D801A252F823F0F3190008E7
:10197C00CD190008DF190008211A0008271A0008E1
:10198C00271A0008271A0008271A0008271A000827
:10199C00271A0008271A0008271A0008271A000817
:1019AC00271A0008271A0008271A0008271A000807
:1019BC00D5190008E9190008824A934213D02CE08B
:1019CC003B68DB683B6229E03B68DB6804333B62C5
:1019DC0024E03B68DB6808333B621FE03B68DB6854
:1019EC000C333B621AE03B689B68002B02D104234A
:1019FC003B6213E03B689B68012B05D108233B62DB
:101A0C007B68FA691A6109E008233B627B68FA6912
:101A1C005A6103E000233B6200E000BFBB69FF2B6F
:101A2C0001D87B6801E07B6804337B61BB69FF2BC9
:101A3C0002D87B6A9B0002E07B6A083B9B003B61FF
:101A4C007B691A680F213B6901FA03F3DB431A40E7
:101A5C00396A3B6901FA03F31A437B691A603B68E4
:101A6C005B6803F08053002B00F09080564B9B6911
:101A7C00554A43F001039361534B9B6903F00103F7
:101A8C00BB60BB68514A7B6A9B08023352F8233017
:101A9C00FB607B6A03F003039B000F2202FA03F343
:101AAC00DB43FA681340FB607B68494A93420DD0D4
:101ABC007B68484A934207D07B68474A934201D1DE
:101ACC00022304E0032302E0012300E000237A6AEE
:101ADC0002F0030292009340FA681343FB603B4907
:101AEC007B6A9B080233FA6841F823203B685B68E9
:101AFC0003F48013002B06D0384B9A683749BB6926
:101B0C0013438B6006E0354B9A68BB69DB43334962
:101B1C0013408B603B685B6803F40013002B06D00A
:101B2C002E4BDA682D49BB691343CB6006E02B4B77
:101B3C00DA68BB69DB4329491340CB603B685B68BF
:101B4C0003F40033002B06D0244B5A682349BB699D
:101B5C0013434B6006E0214B5A68BB69DB431F49BA
:101B6C0013404B603B685B6803F48033002B06D05A
:101B7C001A4B1A681949BB6913430B6006E0174BE3
:101B8C001A68BB69DB43154913400B607B6A013350
:101B9C007B623B681A687B6A22FA03F3002B7FF4A2
:101BAC00AFAE00BF00BF2C37BD4680BC704700BF36
:101BBC000000321000003110000022100000211033
:101BCC000000121000001110001002400000014033
:101BDC0000080140000C01400010014000040140CD
:101BEC0080B485B000AF78600B467B807B689A68C8
:101BFC007B881340002B02D00123FB7301E00023F0
:101C0C00FB73FB7B18461437BD4680BC704780B411
:101C1C0083B000AF78600B467B8013467B707B787B
:101C2C00002B03D07A887B681A6103E07B881A0446
:101C3C007B681A6100BF0C37BD4680BC704780B40E
:101C4C0085B000AF78600B467B807B68DB68FB60FF
:101C5C007A88FB6813401A04FB68D9437B880B40D5
:101C6C001A437B681A6100BF1437BD4680BC7047AD
:101C7C0080B586B000AF78607B68002B01D1012362
:101C8C006CE27B681B6803F00103002B00F087807B
:101C9C00924B5B6803F00C03042B0CD08F4B5B68EE
:101CAC0003F00C03082B12D18C4B5B6803F48033CC
:101CBC00B3F5803F0BD1894B1B6803F40033002B29
:101CCC006CD07B685B68002B68D1012346E27B6893
:101CDC005B68B3F5803F06D1804B1B687F4A43F4A9
:101CEC00803313602EE07B685B68002B0CD17B4B40
:101CFC001B687A4A23F480331360784B1B68774A4D
:101D0C0023F4802313601DE07B685B68B3F5A02F80
:101D1C000CD1724B1B68714A43F4802313606F4BD8
:101D2C001B686E4A43F4803313600BE06B4B1B68EB
:101D3C006A4A23F480331360684B1B68674A23F4A8
:101D4C00802313607B685B68002B13D0FFF7B6FC15
:101D5C00386108E0FFF7B2FC02463B69D31A642BEA
:101D6C0001D90323FAE15D4B1B6803F40033002B0C
:101D7C00F0D014E0FFF7A2FC386108E0FFF79EFCFE
:101D8C0002463B69D31A642B01D90323E6E1534B7A
:101D9C001B6803F40033002BF0D100E000BF7B681C
:101DAC001B6803F00203002B63D04C4B5B6803F001
:101DBC000C03002B0BD0494B5B6803F00C03082B76
:101DCC001CD1464B5B6803F48033002B16D1434B7C
:101DDC001B6803F00203002B05D07B681B69012BE9
:101DEC0001D00123BAE13D4B1B6823F0F8027B685C
:101DFC005B69DB00394913430B603AE07B681B6974
:101E0C00002B20D0364B01221A60FFF757FC3861AB
:101E1C0008E0FFF753FC02463B69D31A022B01D9A9
:101E2C0003239BE12D4B1B6803F00203002BF0D026
:101E3C002A4B1B6823F0F8027B685B69DB0027499F
:101E4C0013430B6015E0264B00221A60FFF736FC9B
:101E5C00386108E0FFF732FC02463B69D31A022BCB
:101E6C0001D903237AE11D4B1B6803F00203002BFD
:101E7C00F0D17B681B6803F00803002B3AD07B6819
:101E8C009B69002B19D0174B01221A60FFF716FC27
:101E9C00386108E0FFF712FC02463B69D31A022BAB
:101EAC0001D903235AE10D4B5B6A03F00203002BAB
:101EBC00F0D0012000F09AFA1CE00A4B00221A60C4
:101ECC00FFF7FCFB38610FE0FFF7F8FB02463B69BC
:101EDC00D31A022B08D9032340E100BF00100240A3
:101EEC0000004242800442429E4B5B6A03F00203B4
:101EFC00002BE9D17B681B6803F00403002B00F076
:101F0C00A6800023FB75974BDB6903F08053002BF5
:101F1C000DD1944BDB69934A43F08053D361914BC1
:101F2C00DB6903F08053BB60BB680123FB758E4BF0
:101F3C001B6803F48073002B18D18B4B1B688A4AE7
:101F4C0043F480731360FFF7B9FB386108E0FFF7C7
:101F5C00B5FB02463B69D31A642B01D90323FDE080
:101F6C00814B1B6803F48073002BF0D07B68DB681B
:101F7C00012B06D17B4B1B6A7A4A43F00103136297
:101F8C002DE07B68DB68002B0CD1764B1B6A754A05
:101F9C0023F001031362734B1B6A724A23F0040390
:101FAC0013621CE07B68DB68052B0CD16D4B1B6A44
:101FBC006C4A43F0040313626A4B1B6A694A43F090
:101FCC00010313620BE0674B1B6A664A23F00103A3
:101FDC001362644B1B6A634A23F0040313627B682D
:101FEC00DB68002B15D0FFF769FB38610AE0FFF7BF
:101FFC0065FB02463B69D31A41F28832934201D900
:10200C000323ABE0574B1B6A03F00203002BEED00B
:10201C0014E0FFF753FB38610AE0FFF74FFB024671
:10202C003B69D31A41F28832934201D9032395E0DC
:10203C004C4B1B6A03F00203002BEED1FB7D012BF2
:10204C0005D1484BDB69474A23F08053D3617B6849
:10205C00DB69002B00F08180424B5B6803F00C03C2
:10206C00082B61D07B68DB69022B46D13F4B0022E9
:10207C001A60FFF723FB386108E0FFF71FFB0246ED
:10208C003B69D31A022B01D9032367E0354B1B683C
:10209C0003F00073002BF0D17B681B6AB3F5803F13
:1020AC0008D1304B5B6823F400327B689B682D4968
:1020BC0013434B602B4B5B6823F474127B68196AD7
:1020CC007B685B6A0B43274913434B60274B012208
:1020DC001A60FFF7F3FA386108E0FFF7EFFA0246EF
:1020EC003B69D31A022B01D9032337E01D4B1B6824
:1020FC0003F00073002BF0D02FE01C4B00221A6071
:10210C00FFF7DCFA386108E0FFF7D8FA02463B69C2
:10211C00D31A022B01D9032320E0124B1B6803F0C6
:10212C000073002BF0D118E07B68DB69012B01D127
:10213C00012313E00B4B5B68FB60FB6803F48032FC
:10214C007B681B6A9A4206D1FB6803F470127B68A9
:10215C005B6A9A4201D0012300E00023184618372D
:10216C00BD4680BD0010024000700040600042423D
:10217C0080B584B000AF786039607B68002B01D1EA
:10218C000123D0E06A4B1B6803F007033A689A42BC
:10219C0010D9674B1B6823F0070265493B68134352
:1021AC000B60634B1B6803F007033A689A4201D03B
:1021BC000123B8E07B681B6803F00203002B20D0DE
:1021CC007B681B6803F00403002B05D0594B5B683C
:1021DC00584A43F4E06353607B681B6803F00803C0
:1021EC00002B05D0534B5B68524A43F46053536049
:1021FC00504B5B6823F0F0027B689B684D4913439E
:10220C004B607B681B6803F00103002B40D07B689C
:10221C005B68012B07D1474B1B6803F40033002B81
:10222C0015D101237FE07B685B68022B07D1414B02
:10223C001B6803F00073002B09D1012373E03D4BA5
:10224C001B6803F00203002B01D101236BE0394B17
:10225C005B6823F003027B685B68364913434B6071
:10226C00FFF72CFAF8600AE0FFF728FA0246FB6841
:10227C00D31A41F28832934201D9032353E02D4BF8
:10228C005B6803F00C027B685B689B009A42EBD1A5
:10229C00274B1B6803F007033A689A4210D2244B71
:1022AC001B6823F0070222493B6813430B60204B49
:1022BC001B6803F007033A689A4201D0012332E00D
:1022CC007B681B6803F00403002B08D0194B5B6878
:1022DC0023F4E0627B68DB68164913434B607B6830
:1022EC001B6803F00803002B09D0124B5B6823F426
:1022FC0060527B681B69DB000E4913434B6000F096
:10230C0021F802460B4B5B681B0903F00F030A49CB
:10231C00CB5C22FA03F3094A1360094B1B6818467D
:10232C00FFF78AF9002318461037BD4680BD00BF61
:10233C0000200240001002405C2C00081800002015
:10234C002800002080B487B000AF0023FB6000237E
:10235C00BB6000237B6100237B6000233B611E4B31
:10236C005B68FB60FB6803F00C03042B02D0082BAA
:10237C0003D027E0194B3B6127E0FB689B0C03F073
:10238C000F03174AD35C7B60FB6803F48033002B8C
:10239C0010D0114B5B685B0C03F00103114AD35C4A
:1023AC00BB607B680D4A02FB03F2BB68B2FBF3F324
:1023BC007B6104E07B680C4A02FB03F37B617B6965
:1023CC003B6102E0054B3B6100BF3B6918461C3783
:1023DC00BD4680BC704700BF0010024000127A005E
:1023EC006C2C00087C2C000800093D0080B485B0E2
:1023FC0000AF78600A4B1B680A4AA2FB03235B0AF6
:10240C007A6802FB03F3FB6000BFFB685A1EFA609C
:10241C00002BF9D100BF00BF1437BD4680BC7047FC
:10242C0018000020D34D621080B582B000AF7860E8
:10243C007B68002B01D1012341E07B6893F83D3090
:10244C00DBB2002B06D17B68002283F83C20786835
:10245C00FEF772FE7B68022283F83D207B681A68C7
:10246C007B6804331946104600F056FA7B6801224B
:10247C0083F846207B68012283F83E207B6801228A
:10248C0083F83F207B68012283F840207B6801227F
:10249C0083F841207B68012283F842207B6801226B
:1024AC0083F843207B68012283F844207B68012257
:1024BC0083F845207B68012283F83D2000231846D1
:1024CC000837BD4680BD000080B485B000AF786091
:1024DC007B6893F83D30DBB2012B01D0012335E052
:1024EC007B68022283F83D207B681B68DA687B6876
:1024FC001B6842F00102DA607B681B68164A934243
:10250C0009D07B681B68B3F1804F04D07B681B68D3
:10251C00124A934211D17B681B689B6803F0070336
:10252C00FB60FB68062B10D07B681B681A687B6805
:10253C001B6842F001021A6007E07B681B681A688E
:10254C007B681B6842F001021A600023184614379E
:10255C00BD4680BC704700BF002C01400004004009
:10256C0080B584B000AF78607B681B68DB68FB606B
:10257C007B681B681B69BB60BB6803F00203002B04
:10258C0020D0FB6803F00203002B1BD07B681B6878
:10259C006FF002021A617B6801221A777B681B6854
:1025AC009B6903F00303002B03D0786800F098F9C3
:1025BC0005E0786800F08BF9786800F09AF97B6890
:1025CC0000221A77BB6803F00403002B20D0FB68B1
:1025DC0003F00403002B1BD07B681B686FF0040214
:1025EC001A617B6802221A777B681B689B6903F46B
:1025FC004073002B03D0786800F072F905E078681E
:10260C0000F065F9786800F074F97B6800221A779D
:10261C00BB6803F00803002B20D0FB6803F0080311
:10262C00002B1BD07B681B686FF008021A617B685B
:10263C0004221A777B681B68DB6903F00303002B09
:10264C0003D0786800F04CF905E0786800F03FF9A9
:10265C00786800F04EF97B6800221A77BB6803F0AB
:10266C001003002B20D0FB6803F01003002B1BD0B1
:10267C007B681B686FF010021A617B6808221A775E
:10268C007B681B68DB6903F44073002B03D078680C
:10269C0000F026F905E0786800F019F9786800F088
:1026AC0028F97B6800221A77BB6803F00103002B22
:1026BC000CD0FB6803F00103002B07D07B681B6870
:1026CC006FF001021A617868FEF73CF9BB6803F001
:1026DC008003002B0CD0FB6803F08003002B07D089
:1026EC007B681B686FF080021A61786800F06FFAE3
:1026FC00BB6803F04003002B0CD0FB6803F04003D5
:10270C00002B07D07B681B686FF040021A61786859
:10271C0000F0F8F8BB6803F02003002B0CD0FB682A
:10272C0003F02003002B07D07B681B686FF020029E
:10273C001A61786800F042FA00BF1037BD4680BDC0
:10274C0080B584B000AF786039600023FB737B6880
:10275C0093F83C30012B01D10223B4E07B680122B9
:10276C0083F83C207B68022283F83D207B681B6841
:10277C009B68BB60BB6823F07703BB60BB6823F42A
:10278C007F43BB607B681B68BA689A603B681B68B8
:10279C00B3F5005F3ED0B3F5005F00F28780B3F570
:1027AC00805F00F08680B3F5805F7FD8702B1AD0E5
:1027BC00702B7BD8602B50D0602B77D8502B3CD013
:1027CC00502B73D8402B58D0402B6FD8302B64D063
:1027DC00302B6BD8202B60D0202B67D8002B5CD0F3
:1027EC00102B5AD062E07B6818683B6899683B688C
:1027FC005A683B68DB6800F06AF97B681B689B6869
:10280C00BB60BB6843F07703BB607B681B68BA682E
:10281C009A604FE07B6818683B6899683B685A6817
:10282C003B68DB6800F053F97B681B689A687B682F
:10283C001B6842F480429A603CE07B6818683B68F5
:10284C0059683B68DB681A4600F0CAF87B681B685D
:10285C005021184600F021F92CE07B6818683B6881
:10286C0059683B68DB681A4600F0E8F87B681B681F
:10287C006021184600F011F91CE07B6818683B6871
:10288C0059683B68DB681A4600F0AAF87B681B683D
:10289C004021184600F001F90CE07B681A683B688F
:1028AC001B681946104600F0F8F803E00123FB738F
:1028BC0000E000BF7B68012283F83D207B6800228A
:1028CC0083F83C20FB7B18461037BD4680BD80B496
:1028DC0083B000AF786000BF0C37BD4680BC70473A
:1028EC0080B483B000AF786000BF0C37BD4680BCAD
:1028FC00704780B483B000AF786000BF0C37BD4622
:10290C0080BC704780B483B000AF786000BF0C37D8
:10291C00BD4680BC7047000080B485B000AF7860C5
:10292C0039607B681B68FB607B682B4A934207D03D
:10293C007B68B3F1804F03D07B68284A934208D15F
:10294C00FB6823F07003FB603B685B68FA68134319
:10295C00FB607B68204A934207D07B68B3F1804FC1
:10296C0003D07B681D4A934208D1FB6823F4407363
:10297C00FB603B68DB68FA681343FB60FB6823F081
:10298C0080023B685B691343FB607B68FA681A60E2
:10299C003B689A687B68DA623B681A687B689A6263
:1029AC007B680D4A934203D13B681A697B681A63B2
:1029BC007B6801225A617B681B6903F00103002BC1
:1029CC0005D07B681B6923F001027B681A6100BF8C
:1029DC001437BD4680BC7047002C014000040040F9
:1029EC0080B487B000AFF860B9607A60FB681B6A8E
:1029FC007B61FB681B6A23F00102FB681A62FB68AF
:102A0C009B693B613B6923F0F0033B617B681B01D5
:102A1C003A6913433B617B6923F00A037B617A6952
:102A2C00BB6813437B61FB683A699A61FB687A69FE
:102A3C001A6200BF1C37BD4680BC704780B487B09B
:102A4C0000AFF860B9607A60FB681B6A7B61FB6859
:102A5C001B6A23F01002FB681A62FB689B693B61DE
:102A6C003B6923F470433B617B681B033A69134356
:102A7C003B617B6923F0A0037B61BB681B017A6916
:102A8C0013437B61FB683A699A61FB687A691A6245
:102A9C0000BF1C37BD4680BC704780B485B000AF0A
:102AAC00786039607B689B68FB60FB6823F070037F
:102ABC00FB603A68FB68134343F00703FB607B68D9
:102ACC00FA689A6000BF1437BD4680BC704780B46A
:102ADC0087B000AFF860B9607A603B60FB689B68B8
:102AEC007B617B6923F47F437B613B681A027B68C3
:102AFC001A43BB6813437A6913437B61FB687A6999
:102B0C009A6000BF1C37BD4680BC704780B485B04E
:102B1C0000AF786039607B6893F83C30012B01D1B1
:102B2C00022341E07B68012283F83C207B6802226F
:102B3C0083F83D207B681B685B68FB607B681B68C7
:102B4C009B68BB60FB6823F07003FB603B681B68F1
:102B5C00FA681343FB607B681B68FA685A607B68F1
:102B6C001B68144A934209D07B681B68B3F1804FF1
:102B7C0004D07B681B68104A93420CD1BB6823F0CD
:102B8C008003BB603B685B68BA681343BB607B68BF
:102B9C001B68BA689A607B68012283F83D207B68C9
:102BAC00002283F83C20002318461437BD4680BC15
:102BBC00704700BF002C01400004004080B483B07B
:102BCC0000AF786000BF0C37BD4680BC704780B446
:102BDC0083B000AF786000BF0C37BD4680BC704737
:102BEC0070B500260C4D0D4C641BA410A64209D1E7
:102BFC0000F022F800260A4D0A4C641BA410A642D1
:102C0C0005D170BD55F8043B98470136EEE755F8F1
:102C1C00043B98470136F2E7802C0008802C000812
:102C2C00802C0008842C000803460244934200D1F7
:102C3C00704703F8011BF9E7F8B500BFF8BC08BCF6
:102C4C009E467047F8B500BFF8BC08BC9E4670475E
:102C5C000000000000000000010203040607080940
:102C6C0002030405060708090A0B0C0D0E0F1010C1
:042C7C000102000051
:042C80003101000816
:042C84000D01000836
:102C88001400000001000000020000000300000022
:102C9800040000000A00000000127A00050000008D
:102CA8000200000003000000100000000100000006
:04000005080015CD0D
:00000001FF
